{
  "_format": "hh-sol-artifact-1",
  "contractName": "TicketBooking",
  "sourceName": "contracts/TicketBooking.sol",
  "abi": [
    {
      "anonymous": false,
      "inputs": [
        {
          "indexed": false,
          "internalType": "uint256",
          "name": "id",
          "type": "uint256"
        },
        {
          "indexed": false,
          "internalType": "address",
          "name": "owner",
          "type": "address"
        },
        {
          "indexed": false,
          "internalType": "uint256",
          "name": "price",
          "type": "uint256"
        }
      ],
      "name": "TicketCreated",
      "type": "event"
    },
    {
      "anonymous": false,
      "inputs": [
        {
          "indexed": false,
          "internalType": "uint256",
          "name": "id",
          "type": "uint256"
        },
        {
          "indexed": false,
          "internalType": "address",
          "name": "buyer",
          "type": "address"
        }
      ],
      "name": "TicketPurchased",
      "type": "event"
    },
    {
      "inputs": [
        {
          "internalType": "uint256",
          "name": "price",
          "type": "uint256"
        }
      ],
      "name": "createTicket",
      "outputs": [],
      "stateMutability": "nonpayable",
      "type": "function"
    },
    {
      "inputs": [
        {
          "internalType": "uint256",
          "name": "id",
          "type": "uint256"
        }
      ],
      "name": "getTicket",
      "outputs": [
        {
          "components": [
            {
              "internalType": "uint256",
              "name": "id",
              "type": "uint256"
            },
            {
              "internalType": "address",
              "name": "owner",
              "type": "address"
            },
            {
              "internalType": "uint256",
              "name": "price",
              "type": "uint256"
            },
            {
              "internalType": "bool",
              "name": "isAvailable",
              "type": "bool"
            }
          ],
          "internalType": "struct TicketBooking.Ticket",
          "name": "",
          "type": "tuple"
        }
      ],
      "stateMutability": "view",
      "type": "function"
    },
    {
      "inputs": [
        {
          "internalType": "uint256",
          "name": "id",
          "type": "uint256"
        }
      ],
      "name": "purchaseTicket",
      "outputs": [],
      "stateMutability": "payable",
      "type": "function"
    },
    {
      "inputs": [],
      "name": "ticketCount",
      "outputs": [
        {
          "internalType": "uint256",
          "name": "",
          "type": "uint256"
        }
      ],
      "stateMutability": "view",
      "type": "function"
    },
    {
      "inputs": [
        {
          "internalType": "uint256",
          "name": "",
          "type": "uint256"
        }
      ],
      "name": "tickets",
      "outputs": [
        {
          "internalType": "uint256",
          "name": "id",
          "type": "uint256"
        },
        {
          "internalType": "address",
          "name": "owner",
          "type": "address"
        },
        {
          "internalType": "uint256",
          "name": "price",
          "type": "uint256"
        },
        {
          "internalType": "bool",
          "name": "isAvailable",
          "type": "bool"
        }
      ],
      "stateMutability": "view",
      "type": "function"
    }
  ],
  "bytecode": "0x608060405234801561001057600080fd5b506108d3806100206000396000f3fe60806040526004361061004a5760003560e01c80630497879c1461004f57806350b44712146100785780637dc379fa146100b8578063b948348c146100f5578063cfbd900f14610111575b600080fd5b34801561005b57600080fd5b5061007660048036038101906100719190610542565b61013c565b005b34801561008457600080fd5b5061009f600480360381019061009a9190610542565b610262565b6040516100af9493929190610770565b60405180910390f35b3480156100c457600080fd5b506100df60048036038101906100da9190610542565b6102bf565b6040516100ec91906106da565b60405180910390f35b61010f600480360381019061010a9190610542565b610370565b005b34801561011d57600080fd5b506101266104e7565b60405161013391906106f5565b60405180910390f35b6001600081548092919061014f9061080e565b9190505550604051806080016040528060015481526020013373ffffffffffffffffffffffffffffffffffffffff1681526020018281526020016001151581525060008060015481526020019081526020016000206000820151816000015560208201518160010160006101000a81548173ffffffffffffffffffffffffffffffffffffffff021916908373ffffffffffffffffffffffffffffffffffffffff1602179055506040820151816002015560608201518160030160006101000a81548160ff0219169083151502179055509050507fc3c40cbe069e81b25d03db6efa000ffa54f0d78cd66b17697dfddbdc017559e3600154338360405161025793929190610739565b60405180910390a150565b60006020528060005260406000206000915090508060000154908060010160009054906101000a900473ffffffffffffffffffffffffffffffffffffffff16908060020154908060030160009054906101000a900460ff16905084565b6102c76104ed565b600080838152602001908152602001600020604051806080016040529081600082015481526020016001820160009054906101000a900473ffffffffffffffffffffffffffffffffffffffff1673ffffffffffffffffffffffffffffffffffffffff1673ffffffffffffffffffffffffffffffffffffffff168152602001600282015481526020016003820160009054906101000a900460ff1615151515815250509050919050565b60008082815260200190815260200160002060030160009054906101000a900460ff166103d2576040517f08c379a00000000000000000000000000000000000000000000000000000000081526004016103c9906106ba565b60405180910390fd5b600080828152602001908152602001600020600201543414610429576040517f08c379a00000000000000000000000000000000000000000000000000000000081526004016104209061069a565b60405180910390fd5b3360008083815260200190815260200160002060010160006101000a81548173ffffffffffffffffffffffffffffffffffffffff021916908373ffffffffffffffffffffffffffffffffffffffff160217905550600080600083815260200190815260200160002060030160006101000a81548160ff0219169083151502179055507f785f2865353ae960010300f584fc6c577b757a853af69a99c769df3c8232d3de81336040516104dc929190610710565b60405180910390a150565b60015481565b604051806080016040528060008152602001600073ffffffffffffffffffffffffffffffffffffffff168152602001600081526020016000151581525090565b60008135905061053c81610886565b92915050565b60006020828403121561055457600080fd5b60006105628482850161052d565b91505092915050565b610574816107c6565b82525050565b610583816107c6565b82525050565b610592816107d8565b82525050565b6105a1816107d8565b82525050565b60006105b4600f836107b5565b91507f496e636f727265637420707269636500000000000000000000000000000000006000830152602082019050919050565b60006105f46017836107b5565b91507f5469636b6574206973206e6f7420617661696c61626c650000000000000000006000830152602082019050919050565b60808201600082015161063d600085018261067c565b506020820151610650602085018261056b565b506040820151610663604085018261067c565b5060608201516106766060850182610589565b50505050565b61068581610804565b82525050565b61069481610804565b82525050565b600060208201905081810360008301526106b3816105a7565b9050919050565b600060208201905081810360008301526106d3816105e7565b9050919050565b60006080820190506106ef6000830184610627565b92915050565b600060208201905061070a600083018461068b565b92915050565b6000604082019050610725600083018561068b565b610732602083018461057a565b9392505050565b600060608201905061074e600083018661068b565b61075b602083018561057a565b610768604083018461068b565b949350505050565b6000608082019050610785600083018761068b565b610792602083018661057a565b61079f604083018561068b565b6107ac6060830184610598565b95945050505050565b600082825260208201905092915050565b60006107d1826107e4565b9050919050565b60008115159050919050565b600073ffffffffffffffffffffffffffffffffffffffff82169050919050565b6000819050919050565b600061081982610804565b91507fffffffffffffffffffffffffffffffffffffffffffffffffffffffffffffffff82141561084c5761084b610857565b5b600182019050919050565b7f4e487b7100000000000000000000000000000000000000000000000000000000600052601160045260246000fd5b61088f81610804565b811461089a57600080fd5b5056fea2646970667358221220ebba6bbbcd939b3be692ca00a599735850fd5f96080c8b833ac7547bb228277864736f6c63430008000033",
  "linkReferences": {},
  "deployedLinkReferences": {}
}